:020000000F28C7
:10000800DE00030E8312A0000408A1000A08A20063
:100018005F08A300382810288312A801A901AA01A3
:10002800AB0183011728622083129001FC308F00F6
:1000380017308E00101483160C1483120C100B1733
:100048008B176F20033083122502E930031924022D
:10005800031C252820308506851E352883120516A1
:1000680025288312051225280C1C452883160C1CEC
:100078004528FC3083128F0017308E0051208312E0
:100088000C1083122308DF0022088A00210884004C
:10009800200E8300DE0E5E0E0900831205185B2811
:1000A8000130A8070318A90A0030A9070800290881
:1000B800AB002808AA00A801A9010800013083168E
:1000C800850007308312990083169F0195019601D8
:1000D80083128501080083122B08A7002A08A600AE
:0E00E800AA01AB012708A5002608A400080005
:02400E00B431CB
:00000001FF
