:020000000F28C7
:10000800DE00030E8312A0000408A1000A08A20063
:100018005F08A3006C281028C820B200AC01AD010D
:10002800AE01AF01B001B10183011A28AF208312DC
:100038009001FC308F0017308E00101483160C14BA
:1000480083120C100B178B17BC200030831225026B
:10005800653003192402031C33280130342800308A
:10006800A8002808AB002B08031D051954280515FE
:10007800B2010B30AA002630A9005D30A800A80BF9
:100088004328A90B4328AA0B43284A28831205169C
:10009800051E5128831285162828831285122828C0
:1000A8002B08031D051D2828051285120630AA00F5
:1000B8001330A900AD30A800A80B6028A90B602850
:1000C800AA0B6028672883120511B201B20A2828F2
:1000D8000130B0070318B10A0030B107033031020C
:1000E800E93003193002031C8128320803198128DA
:1000F800B001B1010230850685283208031D852824
:1001080085100C1C922883160C1C9228FC30831234
:100118008F0017308E009E2083120C108312230844
:10012800DF0022088A0021088400200E8300DE0EEA
:100138005E0E090083120518A8280130AC070318C1
:10014800AD0A0030AD0708002D08AF002C08AE003E
:10015800AC01AD0108000130831685000730831219
:10016800990083169F019501960183128501080065
:1001780083122F08A7002E08A600AE01AF0127089A
:0A018800A5002608A40008000134B9
:02400E0064301C
:00000001FF
