:020000000F28C7
:10000800DE00030E8312A0000408A1000A08A20063
:100018005F08A300682810288312AC01AD01AE0167
:10002800AF0183011728922083129001FC308F00C2
:1000380017308E00101483160C1483120C100B1733
:100048008B179F2000308312250265300319240284
:10005800031C3028013031280030A8002808AB00E4
:100068002B08031D05195128051585140B30AA0006
:100078002630A9005D30A800A80B4028A90B40280D
:10008800AA0B4028472883120516051E4E288312FE
:10009800851625288312851225282B08031D051D82
:1000A8002528051285120630AA001330A900AD30A4
:1000B800A800A80B5D28A90B5D28AA0B5D28642859
:1000C80083120511851025280C1C752883160C1C15
:1000D8007528FC3083128F0017308E008120831220
:1000E8000C1083122308DF0022088A0021088400EC
:1000F800200E8300DE0E5E0E0900831205188B2881
:100108000130AC070318AD0A0030AD0708002D0810
:10011800AF002C08AE00AC01AD0108000130831619
:10012800850007308312990083169F019501960177
:1001380083128501080083122F08A7002E08A60045
:0E014800AE01AF012708A5002608A40008009C
:02400E0064301C
:00000001FF
